:020000040800F2
:1000000000500020C905000819060008190600085C
:10001000190600081906000819060008000000006B
:1000200000000000000000000000000019060008A9
:10003000190600080000000019060008190600084B
:100040001906000819060008190600081906000814
:100050001906000819060008190600081906000804
:1000600019060008190600081906000819060008F4
:1000700019060008190600081906000819060008E4
:1000800019060008190600081906000819060008D4
:1000900019060008190600081906000819060008C4
:1000A00019060008190600081906000819060008B4
:1000B00019060008190600081906000819060008A4
:1000C0001906000819060008190600081906000894
:1000D0001906000819060008190600081906000884
:1000E000190600081906000800000000190600089B
:1000F0001906000819060008190600081906000864
:100100001906000819060008190600081906000853
:100110001906000819060008190600081906000843
:100120001906000819060008190600081906000833
:1001300010B5054C237833B9044B13B10448AFF321
:1001400000800123237010BD00000020000000008B
:100150006406000808B5034B1BB103490348AFF31D
:10016000008008BD000000000400002064060008B4
:1001700080B485B000AF78600023FB600CE0002302
:10018000BB6002E0BB680133BB60BB68B3F57A7F3C
:10019000F8D3FB680133FB60FB687A689A42EED8BB
:1001A00000BF00BF1437BD4680BC704780B400AFAD
:1001B0000D4B1B680C4A43F0040313600B4B1B6888
:1001C0000A4A23F00F031360084B1B68074A43F0E9
:1001D00008031360064B1B68054A23F001031360F4
:1001E00000BFBD4680BC70471810024000080140A7
:1001F0000C08014080B400AF064B1B6803F00103FC
:10020000002B01D0012300E000231846BD4680BC2E
:10021000704700BF0808014080B400AF1B4B1B684B
:100220001A4A43F008031360194B1B68184A43F439
:1002300000131360174B1B68164A23F07F431360AB
:10024000144B1B68134A43F07F431360124B1B6827
:10025000114A43F4004313600F4B1B680E4A23F40A
:10026000004313600D4B08221A600D4B28221A60C0
:100270000C4B09221A60084B1B68074A43F0010324
:10028000136000BFBD4680BC704700BF181002401D
:100290001C100240000C0140005400400454004077
:1002A0001C5400402054004080B483B000AF03468B
:1002B0000A46FB711346BB711A4B1B68194A43F47B
:1002C0008073136000BF184B1B6803F00103002B01
:1002D000F9D0FB79154A5B00136000BF124B1B6815
:1002E00003F00203002BF9D0114B1B6800BF0E4B2B
:1002F0001B6803F08003002BF9D00C4ABB79136014
:1003000000BF094B1B6803F00403002BF9D0054B19
:100310001B68044A43F40073136000BF0C37BD46EA
:1003200080BC7047005400401454004010540040FA
:100330001854004080B582B000AF0346FB71FB79D2
:1003400043F00C03DBB219462720FFF7ADFF022074
:10035000FFF70EFF97F9073023F00C035BB243F071
:1003600008035BB2DBB219462720FFF79DFF02208E
:10037000FFF7FEFE00BF0837BD4680BD80B584B0E4
:1003800000AF0346FB71FB7923F00F03FB73FB798E
:100390001B01BB73FB7B23F00103DBB21846FFF7A5
:1003A000C9FFBB7B23F00103DBB21846FFF7C2FF96
:1003B00000BF1037BD4680BD80B584B000AF034696
:1003C000FB71FB7923F00F03FB73FB791B01BB73FC
:1003D000FB7B43F00103DBB21846FFF7ABFFBB7BAF
:1003E00043F00103DBB21846FFF7A4FF00BF10374C
:1003F000BD4680BD80B500AF3220FFF7B9FE30208A
:10040000FFF798FF0520FFF7B3FE3020FFF792FFBC
:100410000120FFF7ADFE3020FFF78CFF0120FFF732
:10042000A7FE2020FFF786FF0120FFF7A1FE28206E
:10043000FFF7A4FF0C20FFF7A1FF0120FFF79EFFAD
:100440000A20FFF795FE0620FFF798FF00BF80BD4A
:1004500080B582B000AF786006E07B685A1C7A6095
:100460001B781846FFF7A8FF7B681B78002BF4D198
:1004700000BF00BF0837BD4680BD000080B400AF9C
:10048000154B1B68144A43F004031360124B1B689E
:10049000114A43F480431360104B1B680F4A23F04A
:1004A000F00313600D4B1B680C4A43F0B00313605C
:1004B0000B4B40F241321A600A4B1B68094A43F465
:1004C00000531360074B1B68064A43F00803136090
:1004D00000BFBD4680BC70471810024004080140B0
:1004E000083801400C38014080B483B000AF0346A7
:1004F000FB7100BF064B1B6803F08003002BF9D093
:10050000044AFB79136000BF0C37BD4680BC7047BE
:10051000003801400438014080B582B000AF7860F7
:1005200006E07B685A1C7A601B781846FFF7DCFFF0
:100530007B681B78002BF4D100BF00BF0837BD4695
:1005400080BD000080B582B000AF6420FFF710FED0
:10055000FFF72CFEFFF760FEFFF74CFFFFF78EFF63
:100560008020FFF70BFF1248FFF772FF1148FFF7DB
:10057000D3FFFFF73FFE0346FB71FB79002B09D049
:10058000C020FFF7FBFE0C48FFF762FF0B48FFF7A8
:10059000C3FF08E0C020FFF7F1FE0948FFF758FF4E
:1005A0000848FFF7B9FF4FF49670FFF7E1FDE0E769
:1005B0007C06000888060008A0060008AC060008B3
:1005C000C4060008D40600080D488546AFF3008035
:1005D0000C480D490D4A002302E0D458C45004339E
:1005E000C4188C42F9D30A4A0A4C002301E0136074
:1005F0000432A242FBD300F011F8FFF7A3FFFEE79D
:10060000005000200000002000000020EC06000840
:10061000000000201C000020FEE7000070B500264E
:100620000C4D0D4B5B1B9C10A64209D1002600F01F
:1006300019F80A4D0A4B5B1B9C10A64205D170BDF0
:1006400055F8043B98470136EEE755F8043B9847C8
:100650000136F2E7E4060008E4060008E4060008B4
:10066000E8060008F8B500BFF8BC08BC9E46704715
:0C067000F8B500BFF8BC08BC9E467047FF
:10067C00564942524154494F4E3A20005649425233
:10068C004154494F4E2053454E534F523A200D0A78
:10069C0000000000446574656374656420202000CC
:1006AC00566962726174696F6E2044657465637417
:1006BC006564200D0A0000004E6F2056696272615D
:1006CC0074696F6E202020004E6F20566962726133
:0806DC0074696F6E200D0A0025
:0406E40055010008B4
:0406E80031010008D4
:04000005080005C921
:00000001FF
